:02000000802856
:080008009200910A11080A3C64
:10001000031D1D289101950A15080A3C031D1D2882
:100020009501960A16080A3C031D1D289601970A99
:100030001708063C031D1D289701D93081000B11BC
:040040001208090099
:1001000083168030860010308500C730810083124E
:100110009101950196019701861FBB281108B02017
:1001200086000514AB2005101508B0208600851444
:10013000AB2085101608B02086000515AB200511F0
:100140001708B02086008515AB208511051EA9284B
:100150008C288B018C28FF309800980BAD28080064
:100160008207C034F934A434B034993492348234E0
:10017000F83480349834A0308B00D93081008E2838
:00000001FF
